:1080000012841E1282241281BA1281D40280541268
:1080100081AA1281FF74E0128341B4FF7C80F0EFEB
:10802000C0E0EEC0E0EDC0E07F027E0F7DA0DDFE8F
:10803000DEFADFF6D0E0FDD0E0FED0E0FF22EFC0B8
:10804000E0EEC0E07F207EFFEEDEFEDFF9D0E0FE56
:10805000D0E0FF227522017523021282809082C037
:1080600085822585832675240E12823D7522027530
:1080700023021282809082CF8582258583267524F3
:108080000E12823D1283051283651283D079107A15
:108090001012817A1281FF010F128305FDB40A02CA
:1080A000C28C1283651280F61280AE0280EDC0E0B1
:1080B000E9C0E0EAC0E0C3EDB40B29C28C7522012F
:1080C0007523001282809082F18582258583267532
:1080D000241412823D128305128365D28CA941AA11
:1080E000421283F5D0E0FAD0E0F9D0E022EDC3B43B
:1080F0000A020103010FC3ED6022ED94016014ED4B
:1081000094026021ED9405600122E9134020F912E8
:1081100081FF22E9334017F91281FF22EA13400E52
:10812000FA1281FF22EA334005FA1281FF221281FE
:10813000D47BFF7CFFC28C752201752305128280DF
:108140009082E885822585832675240912823D1256
:108150008219111F111F111F1281D4111F111F111C
:108160001F74E0128341B4FF0280E4128305FD1204
:108170008365EDB40A02010380D5E8C0E0E9C0E000
:10818000EAC0E0E58B75F003A4F8540FF9E854F069
:10819000C4FA7B017C01EB03FBD9FBEC03FCDAFBAB
:1081A000D0E0FAD0E0F9D0E0F822E99B600122EAC1
:1081B0009C600122317A1281CB227400780090FFFA
:1081C000C1F090FFC2F090FFC3F022E804D4F89011
:1081D000FFC1F022C0E0E9C0E0EAC0E0EBC0E0ECA3
:1081E000C0E079007A007B007C0012820E128219B6
:1081F000D0E0FCD0E0FBD0E0FAD0E0F9D0E02231D2
:10820000D412820E111F31D4128219111F2290FF35
:10821000C5EAF090FFC7E9F02290FFC6ECF090FFAE
:10822000C7EBF02275203812829E75200E12829EB6
:1082300075200112829E75200612829E22EDC0E0FA
:108240007D00852582852683ED93F5211282A80D78
:10825000EDB524EED0E0FD22E9C0E085258285263B
:1082600083E993F5211282A8D0E0F922EAC0E085E3
:108270002582852683EA93F5211282A8D0E0FA228E
:10828000E522B4010C74802523F52012829E02821F
:108290009DB4020974C02523F52012829E22128209
:1082A000B290FFE0E520F0221282B290FFE1E521DA
:1082B000F02290FFE2E020E7F922752001519E2292
:1082C000507265737320416E79204B6579202020B0
:1082D000202020546F20537461727420202030318C
:1082E000323334353637383947414D45204F5645BE
:1082F000522020202020202050415553452020206E
:108300002020202020E8C0E0E9C0E0EAC0E07900B9
:1083100074EFD3F809128341B4FF07E8D31350EE8A
:1083200080F17A001350030A80FAEA75F005A42957
:1083300012834AF5F0D0E0FAD0E0F9D0E0F8E5F0A9
:108340002290FFF0F090FFF1E0228322171615141F
:10835000130C0D0E0F1108090A0B12040506071065
:108360000001020318113E74007141F470F7113ED0
:1083700022C28C758CE3758A14D28CD5405175401D
:1083800064C3028385C0E0E9C0E0EAC0E0A941AA75
:108390004209B90A030A7900BA06027A0075220274
:1083A00075230851809082DE858225858326516C55
:1083B00075220275230951809082DE85822585838E
:1083C00026515889418A42D0E0FAD0E0F9D0E03213
:1083D000E9C0E0EAC0E0754064758CD8758AEFD2D8
:1083E0008C850041A941850042AA421283F5D0E064
:1083F000FAD0E0F92251BA75220275230851809013
:1084000082DE858225858326516C752202752309BB
:1084100051809082DE858225858326515822758978
:0E8420000175A882758D00758B00C3D28E2267
:039F0B000283715D
:00000001FF
